{
  "contractName": "NFTfiSigningUtils",
  "abi": [
    {
      "inputs": [
        {
          "internalType": "uint256",
          "name": "",
          "type": "uint256"
        }
      ],
      "name": "loanIdToLoan",
      "outputs": [
        {
          "internalType": "uint256",
          "name": "loanId",
          "type": "uint256"
        },
        {
          "internalType": "uint256",
          "name": "loanPrincipalAmount",
          "type": "uint256"
        },
        {
          "internalType": "uint256",
          "name": "maximumRepaymentAmount",
          "type": "uint256"
        },
        {
          "internalType": "uint256",
          "name": "nftCollateralId",
          "type": "uint256"
        },
        {
          "internalType": "uint64",
          "name": "loanStartTime",
          "type": "uint64"
        },
        {
          "internalType": "uint32",
          "name": "loanDuration",
          "type": "uint32"
        },
        {
          "internalType": "uint32",
          "name": "loanInterestRateForDurationInBasisPoints",
          "type": "uint32"
        },
        {
          "internalType": "uint32",
          "name": "loanAdminFeeInBasisPoints",
          "type": "uint32"
        },
        {
          "internalType": "address",
          "name": "nftCollateralContract",
          "type": "address"
        },
        {
          "internalType": "address",
          "name": "loanERC20Denomination",
          "type": "address"
        },
        {
          "internalType": "address",
          "name": "borrower",
          "type": "address"
        },
        {
          "internalType": "bool",
          "name": "interestIsProRated",
          "type": "bool"
        }
      ],
      "stateMutability": "view",
      "type": "function"
    },
    {
      "inputs": [],
      "name": "getChainID",
      "outputs": [
        {
          "internalType": "uint256",
          "name": "",
          "type": "uint256"
        }
      ],
      "stateMutability": "view",
      "type": "function"
    },
    {
      "inputs": [
        {
          "internalType": "uint256",
          "name": "_collateralRateInBasisPoints",
          "type": "uint256"
        },
        {
          "internalType": "uint256",
          "name": "_maximumRepaymentAmount",
          "type": "uint256"
        },
        {
          "internalType": "uint256",
          "name": "_nftCollateralId",
          "type": "uint256"
        },
        {
          "internalType": "uint256",
          "name": "_loanDuration",
          "type": "uint256"
        },
        {
          "internalType": "uint256",
          "name": "_loanInterestRateForDurationInBasisPoints",
          "type": "uint256"
        },
        {
          "internalType": "uint256",
          "name": "_borrowerNonce",
          "type": "uint256"
        },
        {
          "internalType": "uint256",
          "name": "_maximumBid",
          "type": "uint256"
        },
        {
          "internalType": "address",
          "name": "_nftCollateralContract",
          "type": "address"
        },
        {
          "internalType": "address",
          "name": "_loanERC20Denomination",
          "type": "address"
        },
        {
          "internalType": "address",
          "name": "_borrower",
          "type": "address"
        },
        {
          "internalType": "bool",
          "name": "_interestIsProRated",
          "type": "bool"
        },
        {
          "internalType": "bytes",
          "name": "_borrowerSignature",
          "type": "bytes"
        }
      ],
      "name": "isValidBorrowerSignature",
      "outputs": [
        {
          "internalType": "bool",
          "name": "",
          "type": "bool"
        }
      ],
      "stateMutability": "view",
      "type": "function"
    },
    {
      "inputs": [
        {
          "internalType": "uint256",
          "name": "_nonce",
          "type": "uint256"
        }
      ],
      "name": "cancelLoanCommitmentBeforeLoanHasBegun",
      "outputs": [],
      "stateMutability": "nonpayable",
      "type": "function"
    },
    {
      "inputs": [
        {
          "internalType": "address",
          "name": "_user",
          "type": "address"
        },
        {
          "internalType": "uint256",
          "name": "_nonce",
          "type": "uint256"
        }
      ],
      "name": "getWhetherNonceHasBeenUsedForUser",
      "outputs": [
        {
          "internalType": "bool",
          "name": "",
          "type": "bool"
        }
      ],
      "stateMutability": "view",
      "type": "function"
    },
    {
      "inputs": [
        {
          "internalType": "uint256",
          "name": "_loanId",
          "type": "uint256"
        }
      ],
      "name": "getPayoffAmount",
      "outputs": [
        {
          "internalType": "uint256",
          "name": "",
          "type": "uint256"
        }
      ],
      "stateMutability": "view",
      "type": "function"
    }
  ],
  "bytecode": "0x608060405234801561001057600080fd5b506108fa806100206000396000f3fe608060405234801561001057600080fd5b50600436106100625760003560e01c8063328404b014610067578063564b81ef1461008f57806365ab6a081461009f5780639658e405146100b2578063c81bd7a6146100c7578063dbb4aa43146101de575b600080fd5b61007a61007536600461065a565b6101f1565b60405190151581526020015b60405180910390f35b465b604051908152602001610086565b6100916100ad366004610684565b61021f565b6100c56100c0366004610684565b6102bb565b005b6101626100d5366004610684565b60006020819052908152604090208054600182015460028301546003840154600485015460058601546006870154600790970154959694959394929367ffffffffffffffff83169363ffffffff600160401b8504811694600160601b8104821694600160801b909104909116926001600160a01b039182169282169181169060ff600160a01b909104168c565b604080519c8d5260208d019b909b52998b019890985260608a019690965267ffffffffffffffff909416608089015263ffffffff92831660a089015290821660c08801521660e08601526001600160a01b0390811661010086015290811661012085015216610140830152151561016082015261018001610086565b61007a6101ec366004610750565b61039e565b6001600160a01b038216600090815260016020908152604080832084845290915290205460ff165b92915050565b60008181526020819052604081206007810154600160a01b900460ff1661024a576002015492915050565b600481015460009061026790429067ffffffffffffffff166104d6565b6001830154600284015460048501549293506000926102a0929190859063ffffffff600160401b8204811691600160601b9004166104e9565b60018401549091506102b29082610543565b95945050505050565b33600090815260016020908152604080832084845290915290205460ff16156103765760405162461bcd60e51b815260206004820152605860248201527f4e6f6e636520696e76616c69642c20757365722068617320656974686572206360448201527f616e63656c6c65642f626567756e2074686973206c6f616e2c206f722072657560648201527f7365642061206e6f6e6365207768656e207369676e696e670000000000000000608482015260a40160405180910390fd5b336000908152600160208181526040808420948452939052919020805460ff19169091179055565b60006001600160a01b0384166103b6575060006104c6565b60408051602081018f90529081018d905260608082018d9052608082018c905260a082018b905260c082018a905260e082018990526bffffffffffffffffffffffff1988821b811661010084015287821b81166101148401529086901b1661012882015283151560f81b61013c820152469060009061013d0160405160208183030381529060405280519060200120905060006104a0826040517f19457468657265756d205369676e6564204d6573736167653a0a3332000000006020820152603c8101829052600090605c01604051602081830303815290604052805190602001209050919050565b90506001600160a01b0387166104b6828761054f565b6001600160a01b03161493505050505b9c9b505050505050505050505050565b60006104e2828461082f565b9392505050565b6000806105026127106104fc8986610626565b90610632565b90506000610514856104fc8489610626565b9050866105218983610543565b111561053a5761053187896104d6565b925050506102b2565b91506102b29050565b60006104e28284610846565b600080600080845160411461056a5760009350505050610219565b50505060208201516040830151606084015160001a601b81101561059657610593601b8261085e565b90505b8060ff16601b141580156105ae57508060ff16601c14155b156105bf5760009350505050610219565b60408051600081526020810180835288905260ff831691810191909152606081018490526080810183905260019060a0016020604051602081039080840390855afa158015610612573d6000803e3d6000fd5b505050602060405103519350505050610219565b60006104e28284610883565b60006104e282846108a2565b80356001600160a01b038116811461065557600080fd5b919050565b6000806040838503121561066d57600080fd5b6106768361063e565b946020939093013593505050565b60006020828403121561069657600080fd5b5035919050565b8035801515811461065557600080fd5b634e487b7160e01b600052604160045260246000fd5b600082601f8301126106d457600080fd5b813567ffffffffffffffff808211156106ef576106ef6106ad565b604051601f8301601f19908116603f01168101908282118183101715610717576107176106ad565b8160405283815286602085880101111561073057600080fd5b836020870160208301376000602085830101528094505050505092915050565b6000806000806000806000806000806000806101808d8f03121561077357600080fd5b8c359b5060208d01359a5060408d0135995060608d0135985060808d0135975060a08d0135965060c08d013595506107ad60e08e0161063e565b94506107bc6101008e0161063e565b93506107cb6101208e0161063e565b92506107da6101408e0161069d565b915067ffffffffffffffff6101608e013511156107f657600080fd5b6108078e6101608f01358f016106c3565b90509295989b509295989b509295989b565b634e487b7160e01b600052601160045260246000fd5b60008282101561084157610841610819565b500390565b6000821982111561085957610859610819565b500190565b600060ff821660ff84168060ff0382111561087b5761087b610819565b019392505050565b600081600019048311821515161561089d5761089d610819565b500290565b6000826108bf57634e487b7160e01b600052601260045260246000fd5b50049056fea264697066735822122027f08751cd078acaef6c09ac5d5e07efbcb2522dd7a4aec537bb95c2c33a931364736f6c634300080a0033",
  "immutableReferences": {},
  "source": "// SPDX-License-Identifier: GPL-3.0\n\npragma solidity ^0.8.10;\n\nimport \"@openzeppelin/contracts/token/ERC721/ERC721.sol\";\nimport \"./SafeMath.sol\";\nimport \"./ECDSA.sol\";\n// File: contracts/NFTfi/v1/NFTfiSigningUtils.sol\n// @title  Helper contract for NFT mortgage. This contract manages verifying signatures\n//         from off-chain loan applications.\n// @author @0xcesare, 0xtaetaehoho, @Jonatha26383028\ncontract NFTfiSigningUtils {\n\n    /* *********** */\n    /* CONSTRUCTOR */\n    /* *********** */\n\n\n    /* ********* */\n    /* FUNCTIONS */\n    /* ********* */\n\n    // @notice OpenZeppelin's ECDSA library is used to call all ECDSA functions\n    //         directly on the bytes32 variables themselves.\n    using ECDSA for bytes32;\n    using SafeMath for uint256;\n\n    mapping (uint256 => Loan) public loanIdToLoan;\n\n    struct Loan {\n        // A unique identifier for this particular loan, sourced from the\n        // continuously increasing parameter totalNumLoans.\n        uint256 loanId;\n        // The original sum of money transferred from lender to borrower at the\n        // beginning of the loan, measured in loanERC20Denomination's smallest\n        // units.\n        uint256 loanPrincipalAmount;\n        // The maximum amount of money that the borrower would be required to\n        // repay retrieve their collateral, measured in loanERC20Denomination's\n        // smallest units. If interestIsProRated is set to false, then the\n        // borrower will always have to pay this amount to retrieve their\n        // collateral, regardless of whether they repay early.\n        uint256 maximumRepaymentAmount;\n        // The ID within the NFTCollateralContract for the NFT being used as\n        // collateral for this loan. The NFT is stored within this contract\n        // during the duration of the loan.\n        uint256 nftCollateralId;\n        // The block.timestamp when the loan first began (measured in seconds).\n        uint64 loanStartTime;\n        // The amount of time (measured in seconds) that can elapse before the\n        // lender can liquidate the loan and seize the underlying collateral.\n        uint32 loanDuration;\n        // If interestIsProRated is set to true, then this is the interest rate\n        // (measured in basis points, e.g. hundreths of a percent) for the loan,\n        // that must be repaid pro-rata by the borrower at the conclusion of\n        // the loan or risk seizure of their nft collateral. Note that if\n        // interestIsProRated is set to false, then this value is not used and\n        // is irrelevant.\n        uint32 loanInterestRateForDurationInBasisPoints;\n        // The percent (measured in basis points) of the interest earned that\n        // will be taken as a fee by the contract admins when the loan is\n        // repaid. The fee is stored here to prevent an attack where the\n        // contract admins could adjust the fee right before a loan is repaid,\n        // and take all of the interest earned.\n        uint32 loanAdminFeeInBasisPoints;\n        // The ERC721 contract of the NFT collateral\n        address nftCollateralContract;\n        // The ERC20 contract of the currency being used as principal/interest\n        // for this loan.\n        address loanERC20Denomination;\n        // The address of the borrower.\n        address borrower;\n        // A boolean value determining whether the interest will be pro-rated\n        // if the loan is repaid early, or whether the borrower will simply\n        // pay maximumRepaymentAmount.\n        bool interestIsProRated;\n    }\n\n    // @notice This function gets the current chain ID.\n    function getChainID() public view returns (uint256) {\n        uint256 id;\n        assembly {\n            id := chainid()\n        }\n        return id;\n    }\n\n    // @notice This function is called in nftmortgage.beginLoan() to validate the\n    //         borrower's signature that the borrower provided off-chain to\n    //         verify that they did indeed want to agree to this loan according\n    //         to these terms.\n    // @param  _collateralRateInBasisPoints - Collateral rate in basis points \n    //         supplied from borrower to the partybid.\n    // @param  _maximumRepaymentAmount - The maximum amount of money that the\n    //         borrower would be required to retrieve their collateral. If\n    //         interestIsProRated is set to false, then the borrower will\n    //         always have to pay this amount to retrieve their collateral.\n    // @param  _nftCollateralId - The ID within the NFTCollateralContract for\n    //         the NFT being used as collateral for this loan. The NFT is\n    //         stored within this contract during the duration of the loan.\n    // @param  _loanDuration - The amount of time (measured in seconds) that can\n    //         elapse before the lender can liquidate the loan and seize the\n    //         underlying collateral NFT.\n    // @param  _loanInterestRateForDurationInBasisPoints - The interest rate\n    //         (measured in basis points, e.g. hundreths of a percent) for the\n    //         loan, that must be repaid pro-rata by the borrower at the\n    //         conclusion of the loan or risk seizure of their nft collateral.\n    // @param  _adminFeeInBasisPoints - The percent (measured in basis\n    //         points) of the interest earned that will be taken as a fee by\n    //         the contract admins when the loan is repaid. The fee is stored\n    //         in the loan struct to prevent an attack where the contract\n    //         admins could adjust the fee right before a loan is repaid, and\n    //         take all of the interest earned.\n    // @param  _borrowerNonce - The nonce referred to here\n    //         is not the same as an Ethereum account's nonce. We are referring\n    //         instead to nonces that are used by both the lender and the\n    //         borrower when they are first signing off-chain NFTfi orders.\n    //         These nonces can be any uint256 value that the user has not\n    //         previously used to sign an off-chain order. Each nonce can be\n    //         used at most once per user within NFTfi, regardless of whether\n    //         they are the lender or the borrower in that situation. This\n    //         serves two purposes. First, it prevents replay attacks where an\n    //         attacker would submit a user's off-chain order more than once.\n    //         Second, it allows a user to cancel an off-chain order by calling\n    //         NFTfi.cancelLoanCommitmentBeforeLoanHasBegun(), which marks the\n    //         nonce as used and prevents any future loan from using the user's\n    //         off-chain order that contains that nonce.\n    // @param  _nftCollateralContract - The ERC721 contract of the NFT\n    //         collateral\n    // @param  _loanERC20Denomination - The ERC20 contract of the currency being\n    //         used as principal/interest for this loan.\n    // @param  _borrower - The address of the borrower. \n    // @param  _interestIsProRated - A boolean value determining whether the\n    //         interest will be pro-rated if the loan is repaid early, or\n    //         whether the borrower will simply pay maximumRepaymentAmount.\n    // @param  _borrowerSignature - The ECDSA signature of the borrower,\n    //         obtained off-chain ahead of time, signing the following\n    //         combination of parameters: _loanPrincipalAmount,\n    //         _maximumRepaymentAmount _nftCollateralId, _loanDuration,\n    //         _loanInterestRateForDurationInBasisPoints, _borrowerNonce,\n    //         _nftCollateralContract, _loanERC20Denomination, _borrower,\n    //         _interestIsProRated.\n    // @return A bool representing whether verification succeeded, showing that\n    //         this signature matched this address and parameters.\n    function isValidBorrowerSignature(\n        uint256 _collateralRateInBasisPoints,\n        // the above param will change with our implementation\n        uint256 _maximumRepaymentAmount,\n        uint256 _nftCollateralId,\n        uint256 _loanDuration,\n        uint256 _loanInterestRateForDurationInBasisPoints,\n        // uint256 _adminFeeInBasisPoints,\n        uint256 _borrowerNonce,\n        uint256 _maximumBid,\n        address _nftCollateralContract,\n        address _loanERC20Denomination,\n        address _borrower,\n        bool _interestIsProRated,\n        bytes memory _borrowerSignature\n    ) public view returns(bool) {\n        if(_borrower == address(0)){\n            return false;\n        } else {\n            uint256 chainId;\n            chainId = getChainID();\n            bytes32 message = keccak256(abi.encodePacked(\n                _collateralRateInBasisPoints,\n                _maximumRepaymentAmount,\n                _nftCollateralId,\n                _loanDuration,\n                _loanInterestRateForDurationInBasisPoints,\n                // _adminFeeInBasisPoints,\n                _borrowerNonce,\n                _maximumBid,\n                _nftCollateralContract,\n                _loanERC20Denomination,\n                _borrower,\n                _interestIsProRated\n            ));\n\n            bytes32 messageWithEthSignPrefix = message.toEthSignedMessageHash();\n\n            return (messageWithEthSignPrefix.recover(_borrowerSignature) == _borrower);\n        }\n    }\n\n    // @notice A mapping that takes both a user's address and a loan nonce\n    //         that was first used when signing an off-chain order and checks\n    //         whether that nonce has previously either been used for a loan,\n    //         or has been pre-emptively cancelled. The nonce referred to here\n    //         is not the same as an Ethereum account's nonce. We are referring\n    //         instead to nonces that are used by both the lender and the\n    //         borrower when they are first signing off-chain NFTfi orders.\n    //         These nonces can be any uint256 value that the user has not\n    //         previously used to sign an off-chain order. Each nonce can be\n    //         used at most once per user within NFTfi, regardless of whether\n    //         they are the lender or the borrower in that situation. This\n    //         serves two purposes. First, it prevents replay attacks where an\n    //         attacker would submit a user's off-chain order more than once.\n    //         Second, it allows a user to cancel an off-chain order by calling\n    //         NFTfi.cancelLoanCommitmentBeforeLoanHasBegun(), which marks the\n    //         nonce as used and prevents any future loan from using the user's\n    //         off-chain order that contains that nonce.\n    mapping (address => mapping (uint256 => bool)) private _nonceHasBeenUsedForUser;\n\n    // @notice This function can be called by either a lender or a borrower to\n    //         cancel all off-chain orders that they have signed that contain\n    //         this nonce. If the off-chain orders were created correctly,\n    //         there should only be one off-chain order that contains this\n    //         nonce at all.\n\n    function cancelLoanCommitmentBeforeLoanHasBegun(uint256 _nonce) external {\n        require(!_nonceHasBeenUsedForUser[msg.sender][_nonce], 'Nonce invalid, user has either cancelled/begun this loan, or reused a nonce when signing');\n        _nonceHasBeenUsedForUser[msg.sender][_nonce] = true;\n    }\n    // @notice This function can be used to view whether a particular nonce\n    //         for a particular user has already been used, either from a\n    //         successful loan or a cancelled off-chain order.\n    // @param  _user - The address of the user. This function works for both\n    //         lenders and borrowers alike.\n    // @return A bool representing whether or not this nonce has been used for\n    //         this user.\n    function getWhetherNonceHasBeenUsedForUser(address _user, uint256 _nonce) public view returns (bool) {\n        return _nonceHasBeenUsedForUser[_user][_nonce];\n    }\n\n       /* ******************* */\n    /* READ-ONLY FUNCTIONS */\n    /* ******************* */\n\n    // @notice This function can be used to view the current quantity of the\n    //         ERC20 currency used in the specified loan required by the\n    //         borrower to repay their loan, measured in the smallest unit of\n    //         the ERC20 currency. Note that since interest accrues every\n    //         second, once a borrower calls repayLoan(), the amount will have\n    //         increased slightly.\n    // @param  _loanId  A unique identifier for this particular loan, sourced\n    //         from the continuously increasing parameter totalNumLoans.\n    // @return The amount of the specified ERC20 currency required to pay back\n    //         this loan, measured in the smallest unit of the specified ERC20\n    //         currency.\n    function getPayoffAmount(uint256 _loanId) public view returns (uint256) {\n        Loan storage loan = loanIdToLoan[_loanId];\n        if(loan.interestIsProRated == false){\n            return loan.maximumRepaymentAmount;\n        } else {\n            uint256 loanDurationSoFarInSeconds = block.timestamp.sub(uint256(loan.loanStartTime));\n            uint256 interestDue = _computeInterestDue(loan.loanPrincipalAmount, loan.maximumRepaymentAmount, loanDurationSoFarInSeconds, uint256(loan.loanDuration), uint256(loan.loanInterestRateForDurationInBasisPoints));\n            return (loan.loanPrincipalAmount).add(interestDue);\n        }\n    }\n\n    /* ****************** */\n    /* INTERNAL FUNCTIONS */\n    /* ****************** */\n\n    // @notice A convenience function that calculates the amount of interest\n    //         currently due for a given loan. The interest is capped at\n    //         _maximumRepaymentAmount minus _loanPrincipalAmount.\n    // @param  _loanPrincipalAmount - The total quantity of principal first\n    //         loaned to the borrower, measured in the smallest units of the\n    //         ERC20 currency used for the loan.\n    // @param  _maximumRepaymentAmount - The maximum amount of money that the\n    //         borrower would be required to retrieve their collateral. If\n    //         interestIsProRated is set to false, then the borrower will\n    //         always have to pay this amount to retrieve their collateral.\n    // @param  _loanDurationSoFarInSeconds - The elapsed time (in seconds) that\n    //         has occurred so far since the loan began until repayment.\n    // @param  _loanTotalDurationAgreedTo - The original duration that the\n    //         borrower and lender agreed to, by which they measured the\n    //         interest that would be due.\n    // @param  _loanInterestRateForDurationInBasisPoints - The interest rate\n    ///        that the borrower and lender agreed would be due after the\n    //         totalDuration passed.\n    // @return The quantity of interest due, measured in the smallest units of\n    //         the ERC20 currency used to pay this loan.\n    function _computeInterestDue(uint256 _loanPrincipalAmount, uint256 _maximumRepaymentAmount, uint256 _loanDurationSoFarInSeconds, uint256 _loanTotalDurationAgreedTo, uint256 _loanInterestRateForDurationInBasisPoints) internal pure returns (uint256) {\n        uint256 interestDueAfterEntireDuration = (_loanPrincipalAmount.mul(_loanInterestRateForDurationInBasisPoints)).div(uint256(10000));\n        uint256 interestDueAfterElapsedDuration = (interestDueAfterEntireDuration.mul(_loanDurationSoFarInSeconds)).div(_loanTotalDurationAgreedTo);\n        if(_loanPrincipalAmount.add(interestDueAfterElapsedDuration) > _maximumRepaymentAmount){\n            return _maximumRepaymentAmount.sub(_loanPrincipalAmount);\n        } else {\n            return interestDueAfterElapsedDuration;\n        }\n    }\n\n    // @notice A convenience function computing the adminFee taken from a\n    //         specified quantity of interest\n    // @param  _interestDue - The amount of interest due, measured in the\n    //         smallest quantity of the ERC20 currency being used to pay the\n    //         interest.\n    // @param  _adminFeeInBasisPoints - The percent (measured in basis\n    //         points) of the interest earned that will be taken as a fee by\n    //         the contract admins when the loan is repaid. The fee is stored\n    //         in the loan struct to prevent an attack where the contract\n    //         admins could adjust the fee right before a loan is repaid, and\n    //         take all of the interest earned.\n    // @return The quantity of ERC20 currency (measured in smalled units of\n    //         that ERC20 currency) that is due as an admin fee.\n    function _computeAdminFee(uint256 _interestDue, uint256 _adminFeeInBasisPoints) internal pure returns (uint256) {\n    \treturn (_interestDue.mul(_adminFeeInBasisPoints)).div(10000);\n    }\n\n    // @notice This function attempts to call transferFrom() on the specified\n    //         NFT contract, returning whether it succeeded.\n    // @notice We only call this function from within _transferNftToAddress(),\n    //         which is function attempts to call the various ways that\n    //         different NFT contracts have implemented transfer/transferFrom.\n    // @param  _nftContract - The NFT contract that we are attempting to\n    //         transfer an NFT from.\n    // @param  _nftId - The ID of the NFT that we are attempting to transfer.\n    // @param  _recipient - The destination of the NFT that we are attempting\n    //         to transfer.\n    // @return A bool value indicating whether the transfer attempt succeeded.\n    function _attemptTransferFrom(address _nftContract, uint256 _nftId, address _recipient) internal returns (bool) {\n        // @notice Some NFT contracts will not allow you to call transferFrom()\n        //         for an NFT that you own but that is not approved, so we\n        //         cannot simply call transferFrom() here, we have to try to\n        //         call it in a manner that allows the call to fail.\n        (bool success, ) = _nftContract.call(abi.encodeWithSelector(IERC721(_nftContract).transferFrom.selector, address(this), _recipient, _nftId));\n        return success;\n    }\n\n}\n",
  "sourcePath": "/Users/shagodintosh/chicky_scribble/coding/projects/NFT-mortgage/contracts/LoanApplication.sol",
  "compiler": {
    "name": "solc",
    "version": "0.8.10+commit.fc410830.Emscripten.clang"
  },
  "schemaVersion": "3.4.3",
  "updatedAt": "2021-12-11T19:57:12.535Z",
  "devdoc": {
    "kind": "dev",
    "methods": {},
    "version": 1
  },
  "userdoc": {
    "kind": "user",
    "methods": {},
    "version": 1
  }
}